{
  "_format": "hh-sol-artifact-1",
  "contractName": "DAOContract",
  "sourceName": "contracts/DAOContract.sol",
  "abi": [
    {
      "inputs": [
        {
          "internalType": "address",
          "name": "tokenAddress",
          "type": "address"
        }
      ],
      "stateMutability": "nonpayable",
      "type": "constructor"
    },
    {
      "anonymous": false,
      "inputs": [
        {
          "indexed": false,
          "internalType": "address",
          "name": "user",
          "type": "address"
        },
        {
          "indexed": false,
          "internalType": "uint256",
          "name": "amount",
          "type": "uint256"
        }
      ],
      "name": "InitialTokensDistributed",
      "type": "event"
    },
    {
      "anonymous": false,
      "inputs": [
        {
          "indexed": false,
          "internalType": "address",
          "name": "user",
          "type": "address"
        },
        {
          "indexed": false,
          "internalType": "uint256",
          "name": "amount",
          "type": "uint256"
        }
      ],
      "name": "UserRegistered",
      "type": "event"
    },
    {
      "inputs": [],
      "name": "INITIAL_TOKENS",
      "outputs": [
        {
          "internalType": "uint256",
          "name": "",
          "type": "uint256"
        }
      ],
      "stateMutability": "view",
      "type": "function"
    },
    {
      "inputs": [
        {
          "internalType": "string",
          "name": "_desc",
          "type": "string"
        },
        {
          "internalType": "string",
          "name": "_image",
          "type": "string"
        }
      ],
      "name": "createProposal",
      "outputs": [],
      "stateMutability": "nonpayable",
      "type": "function"
    },
    {
      "inputs": [
        {
          "internalType": "uint256",
          "name": "proposalId",
          "type": "uint256"
        }
      ],
      "name": "getProposal",
      "outputs": [
        {
          "internalType": "string",
          "name": "description",
          "type": "string"
        },
        {
          "internalType": "string",
          "name": "image",
          "type": "string"
        },
        {
          "internalType": "uint256",
          "name": "voteFor",
          "type": "uint256"
        },
        {
          "internalType": "uint256",
          "name": "voteAgainst",
          "type": "uint256"
        },
        {
          "internalType": "uint256",
          "name": "deadline",
          "type": "uint256"
        },
        {
          "internalType": "bool",
          "name": "executed",
          "type": "bool"
        }
      ],
      "stateMutability": "view",
      "type": "function"
    },
    {
      "inputs": [],
      "name": "giveInitialTokens",
      "outputs": [],
      "stateMutability": "nonpayable",
      "type": "function"
    },
    {
      "inputs": [
        {
          "internalType": "address",
          "name": "",
          "type": "address"
        }
      ],
      "name": "hasReceivedTokens",
      "outputs": [
        {
          "internalType": "bool",
          "name": "",
          "type": "bool"
        }
      ],
      "stateMutability": "view",
      "type": "function"
    },
    {
      "inputs": [
        {
          "internalType": "uint256",
          "name": "",
          "type": "uint256"
        },
        {
          "internalType": "address",
          "name": "",
          "type": "address"
        }
      ],
      "name": "hasVoted",
      "outputs": [
        {
          "internalType": "bool",
          "name": "",
          "type": "bool"
        }
      ],
      "stateMutability": "view",
      "type": "function"
    },
    {
      "inputs": [],
      "name": "numProposals",
      "outputs": [
        {
          "internalType": "uint256",
          "name": "",
          "type": "uint256"
        }
      ],
      "stateMutability": "view",
      "type": "function"
    },
    {
      "inputs": [
        {
          "internalType": "uint256",
          "name": "",
          "type": "uint256"
        }
      ],
      "name": "proposals",
      "outputs": [
        {
          "internalType": "string",
          "name": "description",
          "type": "string"
        },
        {
          "internalType": "string",
          "name": "image",
          "type": "string"
        },
        {
          "internalType": "uint256",
          "name": "voteFor",
          "type": "uint256"
        },
        {
          "internalType": "uint256",
          "name": "voteAgainst",
          "type": "uint256"
        },
        {
          "internalType": "uint256",
          "name": "deadline",
          "type": "uint256"
        },
        {
          "internalType": "bool",
          "name": "executed",
          "type": "bool"
        }
      ],
      "stateMutability": "view",
      "type": "function"
    },
    {
      "inputs": [],
      "name": "register",
      "outputs": [],
      "stateMutability": "nonpayable",
      "type": "function"
    },
    {
      "inputs": [
        {
          "internalType": "address",
          "name": "",
          "type": "address"
        }
      ],
      "name": "registeredUsers",
      "outputs": [
        {
          "internalType": "bool",
          "name": "",
          "type": "bool"
        }
      ],
      "stateMutability": "view",
      "type": "function"
    },
    {
      "inputs": [],
      "name": "token",
      "outputs": [
        {
          "internalType": "contract IToken",
          "name": "",
          "type": "address"
        }
      ],
      "stateMutability": "view",
      "type": "function"
    },
    {
      "inputs": [
        {
          "internalType": "uint256",
          "name": "proposalId",
          "type": "uint256"
        },
        {
          "internalType": "bool",
          "name": "support",
          "type": "bool"
        }
      ],
      "name": "vote",
      "outputs": [],
      "stateMutability": "nonpayable",
      "type": "function"
    }
  ],
  "bytecode": "0x60806040523480156200001157600080fd5b5060405162001c8338038062001c838339818101604052810190620000379190620000e8565b806000806101000a81548173ffffffffffffffffffffffffffffffffffffffff021916908373ffffffffffffffffffffffffffffffffffffffff160217905550506200011a565b600080fd5b600073ffffffffffffffffffffffffffffffffffffffff82169050919050565b6000620000b08262000083565b9050919050565b620000c281620000a3565b8114620000ce57600080fd5b50565b600081519050620000e281620000b7565b92915050565b6000602082840312156200010157620001006200007e565b5b60006200011184828501620000d1565b91505092915050565b611b59806200012a6000396000f3fe608060405234801561001057600080fd5b50600436106100b45760003560e01c80634385963211610071578063438596321461018057806365e481e2146101b057806385c8bd6d146101cc578063c7f758a8146101ea578063c9d27afe1461021f578063fc0c546a1461023b576100b4565b8063013cf08b146100b95780630e50cee5146100ee57806317ae867a1461011e5780631aa3a0081461014e578063400e3949146101585780634207393914610176575b600080fd5b6100d360048036038101906100ce9190610f5b565b610259565b6040516100e596959493929190611042565b60405180910390f35b6101086004803603810190610103919061110f565b6103b2565b604051610115919061113c565b60405180910390f35b6101386004803603810190610133919061110f565b6103d2565b604051610145919061113c565b60405180910390f35b6101566103f2565b005b610160610601565b60405161016d9190611157565b60405180910390f35b61017e610607565b005b61019a60048036038101906101959190611172565b610816565b6040516101a7919061113c565b60405180910390f35b6101ca60048036038101906101c591906112e7565b610845565b005b6101d46109fc565b6040516101e19190611157565b60405180910390f35b61020460048036038101906101ff9190610f5b565b610a09565b60405161021696959493929190611042565b60405180910390f35b6102396004803603810190610234919061138b565b610bc5565b005b610243610eed565b604051610250919061142a565b60405180910390f35b600160205280600052604060002060009150905080600001805461027c90611474565b80601f01602080910402602001604051908101604052809291908181526020018280546102a890611474565b80156102f55780601f106102ca576101008083540402835291602001916102f5565b820191906000526020600020905b8154815290600101906020018083116102d857829003601f168201915b50505050509080600101805461030a90611474565b80601f016020809104026020016040519081016040528092919081815260200182805461033690611474565b80156103835780601f1061035857610100808354040283529160200191610383565b820191906000526020600020905b81548152906001019060200180831161036657829003601f168201915b5050505050908060020154908060030154908060040154908060050160009054906101000a900460ff16905086565b60036020528060005260406000206000915054906101000a900460ff1681565b60046020528060005260406000206000915054906101000a900460ff1681565b600360003373ffffffffffffffffffffffffffffffffffffffff1673ffffffffffffffffffffffffffffffffffffffff16815260200190815260200160002060009054906101000a900460ff161561047f576040517f08c379a0000000000000000000000000000000000000000000000000000000008152600401610476906114f1565b60405180910390fd5b6001600360003373ffffffffffffffffffffffffffffffffffffffff1673ffffffffffffffffffffffffffffffffffffffff16815260200190815260200160002060006101000a81548160ff02191690831515021790555060008054906101000a900473ffffffffffffffffffffffffffffffffffffffff1673ffffffffffffffffffffffffffffffffffffffff1663a9059cbb3368056bc75e2d631000006040518363ffffffff1660e01b815260040161053b929190611520565b6020604051808303816000875af115801561055a573d6000803e3d6000fd5b505050506040513d601f19601f8201168201806040525081019061057e919061155e565b6105bd576040517f08c379a00000000000000000000000000000000000000000000000000000000081526004016105b4906115d7565b60405180910390fd5b7fe29d35093005f4d575e1003753426b57a7f64378ba73332eef9c6ccc2b8decd63368056bc75e2d631000006040516105f7929190611520565b60405180910390a1565b60055481565b600460003373ffffffffffffffffffffffffffffffffffffffff1673ffffffffffffffffffffffffffffffffffffffff16815260200190815260200160002060009054906101000a900460ff1615610694576040517f08c379a000000000000000000000000000000000000000000000000000000000815260040161068b90611643565b60405180910390fd5b60008054906101000a900473ffffffffffffffffffffffffffffffffffffffff1673ffffffffffffffffffffffffffffffffffffffff1663a9059cbb3368056bc75e2d631000006040518363ffffffff1660e01b81526004016106f8929190611520565b6020604051808303816000875af1158015610717573d6000803e3d6000fd5b505050506040513d601f19601f8201168201806040525081019061073b919061155e565b61077a576040517f08c379a0000000000000000000000000000000000000000000000000000000008152600401610771906115d7565b60405180910390fd5b6001600460003373ffffffffffffffffffffffffffffffffffffffff1673ffffffffffffffffffffffffffffffffffffffff16815260200190815260200160002060006101000a81548160ff0219169083151502179055507fa76e1262ce733c2714cf4db3e68f6e6c10def1e056cbe6ff1e53095b56af9eed3368056bc75e2d6310000060405161080c929190611520565b60405180910390a1565b60026020528160005260406000206020528060005260406000206000915091509054906101000a900460ff1681565b60008060009054906101000a900473ffffffffffffffffffffffffffffffffffffffff1673ffffffffffffffffffffffffffffffffffffffff166370a08231336040518263ffffffff1660e01b81526004016108a19190611663565b602060405180830381865afa1580156108be573d6000803e3d6000fd5b505050506040513d601f19601f820116820180604052508101906108e29190611693565b11610922576040517f08c379a00000000000000000000000000000000000000000000000000000000081526004016109199061170c565b60405180910390fd5b6040518060c0016040528083815260200182815260200160008152602001600081526020016203f48042610956919061175b565b81526020016000151581525060016000600560008154809291906109799061178f565b91905055815260200190815260200160002060008201518160000190816109a09190611979565b5060208201518160010190816109b69190611979565b5060408201518160020155606082015181600301556080820151816004015560a08201518160050160006101000a81548160ff0219169083151502179055509050505050565b68056bc75e2d6310000081565b6060806000806000806000600160008981526020019081526020016000206040518060c0016040529081600082018054610a4290611474565b80601f0160208091040260200160405190810160405280929190818152602001828054610a6e90611474565b8015610abb5780601f10610a9057610100808354040283529160200191610abb565b820191906000526020600020905b815481529060010190602001808311610a9e57829003601f168201915b50505050508152602001600182018054610ad490611474565b80601f0160208091040260200160405190810160405280929190818152602001828054610b0090611474565b8015610b4d5780601f10610b2257610100808354040283529160200191610b4d565b820191906000526020600020905b815481529060010190602001808311610b3057829003601f168201915b505050505081526020016002820154815260200160038201548152602001600482015481526020016005820160009054906101000a900460ff1615151515815250509050806000015181602001518260400151836060015184608001518560a001519650965096509650965096505091939550919395565b60008060009054906101000a900473ffffffffffffffffffffffffffffffffffffffff1673ffffffffffffffffffffffffffffffffffffffff166370a08231336040518263ffffffff1660e01b8152600401610c219190611663565b602060405180830381865afa158015610c3e573d6000803e3d6000fd5b505050506040513d601f19601f82011682018060405250810190610c629190611693565b11610ca2576040517f08c379a0000000000000000000000000000000000000000000000000000000008152600401610c999061170c565b60405180910390fd5b600060016000848152602001908152602001600020905080600401544210610cff576040517f08c379a0000000000000000000000000000000000000000000000000000000008152600401610cf690611a97565b60405180910390fd5b6002600084815260200190815260200160002060003373ffffffffffffffffffffffffffffffffffffffff1673ffffffffffffffffffffffffffffffffffffffff16815260200190815260200160002060009054906101000a900460ff1615610d9d576040517f08c379a0000000000000000000000000000000000000000000000000000000008152600401610d9490611b03565b60405180910390fd5b60008060009054906101000a900473ffffffffffffffffffffffffffffffffffffffff1673ffffffffffffffffffffffffffffffffffffffff166370a08231336040518263ffffffff1660e01b8152600401610df99190611663565b602060405180830381865afa158015610e16573d6000803e3d6000fd5b505050506040513d601f19601f82011682018060405250810190610e3a9190611693565b90508215610e625780826002016000828254610e56919061175b565b92505081905550610e7e565b80826003016000828254610e76919061175b565b925050819055505b60016002600086815260200190815260200160002060003373ffffffffffffffffffffffffffffffffffffffff1673ffffffffffffffffffffffffffffffffffffffff16815260200190815260200160002060006101000a81548160ff02191690831515021790555050505050565b60008054906101000a900473ffffffffffffffffffffffffffffffffffffffff1681565b6000604051905090565b600080fd5b600080fd5b6000819050919050565b610f3881610f25565b8114610f4357600080fd5b50565b600081359050610f5581610f2f565b92915050565b600060208284031215610f7157610f70610f1b565b5b6000610f7f84828501610f46565b91505092915050565b600081519050919050565b600082825260208201905092915050565b60005b83811015610fc2578082015181840152602081019050610fa7565b60008484015250505050565b6000601f19601f8301169050919050565b6000610fea82610f88565b610ff48185610f93565b9350611004818560208601610fa4565b61100d81610fce565b840191505092915050565b61102181610f25565b82525050565b60008115159050919050565b61103c81611027565b82525050565b600060c082019050818103600083015261105c8189610fdf565b905081810360208301526110708188610fdf565b905061107f6040830187611018565b61108c6060830186611018565b6110996080830185611018565b6110a660a0830184611033565b979650505050505050565b600073ffffffffffffffffffffffffffffffffffffffff82169050919050565b60006110dc826110b1565b9050919050565b6110ec816110d1565b81146110f757600080fd5b50565b600081359050611109816110e3565b92915050565b60006020828403121561112557611124610f1b565b5b6000611133848285016110fa565b91505092915050565b60006020820190506111516000830184611033565b92915050565b600060208201905061116c6000830184611018565b92915050565b6000806040838503121561118957611188610f1b565b5b600061119785828601610f46565b92505060206111a8858286016110fa565b9150509250929050565b600080fd5b600080fd5b7f4e487b7100000000000000000000000000000000000000000000000000000000600052604160045260246000fd5b6111f482610fce565b810181811067ffffffffffffffff82111715611213576112126111bc565b5b80604052505050565b6000611226610f11565b905061123282826111eb565b919050565b600067ffffffffffffffff821115611252576112516111bc565b5b61125b82610fce565b9050602081019050919050565b82818337600083830152505050565b600061128a61128584611237565b61121c565b9050828152602081018484840111156112a6576112a56111b7565b5b6112b1848285611268565b509392505050565b600082601f8301126112ce576112cd6111b2565b5b81356112de848260208601611277565b91505092915050565b600080604083850312156112fe576112fd610f1b565b5b600083013567ffffffffffffffff81111561131c5761131b610f20565b5b611328858286016112b9565b925050602083013567ffffffffffffffff81111561134957611348610f20565b5b611355858286016112b9565b9150509250929050565b61136881611027565b811461137357600080fd5b50565b6000813590506113858161135f565b92915050565b600080604083850312156113a2576113a1610f1b565b5b60006113b085828601610f46565b92505060206113c185828601611376565b9150509250929050565b6000819050919050565b60006113f06113eb6113e6846110b1565b6113cb565b6110b1565b9050919050565b6000611402826113d5565b9050919050565b6000611414826113f7565b9050919050565b61142481611409565b82525050565b600060208201905061143f600083018461141b565b92915050565b7f4e487b7100000000000000000000000000000000000000000000000000000000600052602260045260246000fd5b6000600282049050600182168061148c57607f821691505b60208210810361149f5761149e611445565b5b50919050565b7f416c726561647920726567697374657265640000000000000000000000000000600082015250565b60006114db601283610f93565b91506114e6826114a5565b602082019050919050565b6000602082019050818103600083015261150a816114ce565b9050919050565b61151a816110d1565b82525050565b60006040820190506115356000830185611511565b6115426020830184611018565b9392505050565b6000815190506115588161135f565b92915050565b60006020828403121561157457611573610f1b565b5b600061158284828501611549565b91505092915050565b7f546f6b656e207472616e73666572206661696c65640000000000000000000000600082015250565b60006115c1601583610f93565b91506115cc8261158b565b602082019050919050565b600060208201905081810360008301526115f0816115b4565b9050919050565b7f416c726561647920726563656976656420696e697469616c20746f6b656e7300600082015250565b600061162d601f83610f93565b9150611638826115f7565b602082019050919050565b6000602082019050818103600083015261165c81611620565b9050919050565b60006020820190506116786000830184611511565b92915050565b60008151905061168d81610f2f565b92915050565b6000602082840312156116a9576116a8610f1b565b5b60006116b78482850161167e565b91505092915050565b7f4e6f74206120746f6b656e20686f6c6465720000000000000000000000000000600082015250565b60006116f6601283610f93565b9150611701826116c0565b602082019050919050565b60006020820190508181036000830152611725816116e9565b9050919050565b7f4e487b7100000000000000000000000000000000000000000000000000000000600052601160045260246000fd5b600061176682610f25565b915061177183610f25565b92508282019050808211156117895761178861172c565b5b92915050565b600061179a82610f25565b91507fffffffffffffffffffffffffffffffffffffffffffffffffffffffffffffffff82036117cc576117cb61172c565b5b600182019050919050565b60008190508160005260206000209050919050565b60006020601f8301049050919050565b600082821b905092915050565b6000600883026118397fffffffffffffffffffffffffffffffffffffffffffffffffffffffffffffffff826117fc565b61184386836117fc565b95508019841693508086168417925050509392505050565b600061187661187161186c84610f25565b6113cb565b610f25565b9050919050565b6000819050919050565b6118908361185b565b6118a461189c8261187d565b848454611809565b825550505050565b600090565b6118b96118ac565b6118c4818484611887565b505050565b5b818110156118e8576118dd6000826118b1565b6001810190506118ca565b5050565b601f82111561192d576118fe816117d7565b611907846117ec565b81016020851015611916578190505b61192a611922856117ec565b8301826118c9565b50505b505050565b600082821c905092915050565b600061195060001984600802611932565b1980831691505092915050565b6000611969838361193f565b9150826002028217905092915050565b61198282610f88565b67ffffffffffffffff81111561199b5761199a6111bc565b5b6119a58254611474565b6119b08282856118ec565b600060209050601f8311600181146119e357600084156119d1578287015190505b6119db858261195d565b865550611a43565b601f1984166119f1866117d7565b60005b82811015611a19578489015182556001820191506020850194506020810190506119f4565b86831015611a365784890151611a32601f89168261193f565b8355505b6001600288020188555050505b505050505050565b7f566f74696e6720656e6465640000000000000000000000000000000000000000600082015250565b6000611a81600c83610f93565b9150611a8c82611a4b565b602082019050919050565b60006020820190508181036000830152611ab081611a74565b9050919050565b7f416c726561647920766f74656400000000000000000000000000000000000000600082015250565b6000611aed600d83610f93565b9150611af882611ab7565b602082019050919050565b60006020820190508181036000830152611b1c81611ae0565b905091905056fea264697066735822122044cbee39309ce97975d4992857e07d4dbd207f2cacba3e97a9bdb5b58279fc7c64736f6c63430008140033",
  "linkReferences": {},
  "deployedLinkReferences": {}
}