{
  "_format": "hh-sol-artifact-1",
  "contractName": "DAOContract",
  "sourceName": "contracts/DAOContract.sol",
  "abi": [
    {
      "inputs": [
        {
          "internalType": "address",
          "name": "tokenAddress",
          "type": "address"
        }
      ],
      "stateMutability": "nonpayable",
      "type": "constructor"
    },
    {
      "inputs": [
        {
          "internalType": "string",
          "name": "_desc",
          "type": "string"
        },
        {
          "internalType": "string",
          "name": "_image",
          "type": "string"
        }
      ],
      "name": "createProposal",
      "outputs": [],
      "stateMutability": "nonpayable",
      "type": "function"
    },
    {
      "inputs": [
        {
          "internalType": "uint256",
          "name": "proposalId",
          "type": "uint256"
        }
      ],
      "name": "getProposal",
      "outputs": [
        {
          "internalType": "string",
          "name": "description",
          "type": "string"
        },
        {
          "internalType": "string",
          "name": "image",
          "type": "string"
        },
        {
          "internalType": "uint256",
          "name": "voteFor",
          "type": "uint256"
        },
        {
          "internalType": "uint256",
          "name": "voteAgainst",
          "type": "uint256"
        },
        {
          "internalType": "uint256",
          "name": "deadline",
          "type": "uint256"
        },
        {
          "internalType": "bool",
          "name": "executed",
          "type": "bool"
        }
      ],
      "stateMutability": "view",
      "type": "function"
    },
    {
      "inputs": [
        {
          "internalType": "uint256",
          "name": "",
          "type": "uint256"
        },
        {
          "internalType": "address",
          "name": "",
          "type": "address"
        }
      ],
      "name": "hasVoted",
      "outputs": [
        {
          "internalType": "bool",
          "name": "",
          "type": "bool"
        }
      ],
      "stateMutability": "view",
      "type": "function"
    },
    {
      "inputs": [],
      "name": "numProposals",
      "outputs": [
        {
          "internalType": "uint256",
          "name": "",
          "type": "uint256"
        }
      ],
      "stateMutability": "view",
      "type": "function"
    },
    {
      "inputs": [
        {
          "internalType": "uint256",
          "name": "",
          "type": "uint256"
        }
      ],
      "name": "proposals",
      "outputs": [
        {
          "internalType": "string",
          "name": "description",
          "type": "string"
        },
        {
          "internalType": "string",
          "name": "image",
          "type": "string"
        },
        {
          "internalType": "uint256",
          "name": "voteFor",
          "type": "uint256"
        },
        {
          "internalType": "uint256",
          "name": "voteAgainst",
          "type": "uint256"
        },
        {
          "internalType": "uint256",
          "name": "deadline",
          "type": "uint256"
        },
        {
          "internalType": "bool",
          "name": "executed",
          "type": "bool"
        }
      ],
      "stateMutability": "view",
      "type": "function"
    },
    {
      "inputs": [],
      "name": "token",
      "outputs": [
        {
          "internalType": "contract IToken",
          "name": "",
          "type": "address"
        }
      ],
      "stateMutability": "view",
      "type": "function"
    },
    {
      "inputs": [
        {
          "internalType": "uint256",
          "name": "proposalId",
          "type": "uint256"
        },
        {
          "internalType": "bool",
          "name": "support",
          "type": "bool"
        }
      ],
      "name": "vote",
      "outputs": [],
      "stateMutability": "nonpayable",
      "type": "function"
    },
    {
      "inputs": [],
      "name": "register",
      "outputs": [],
      "stateMutability": "nonpayable",
      "type": "function"
    }
  ],
  "bytecode": "0x60806040523480156200001157600080fd5b5060405162001573380380620015738339818101604052810190620000379190620000e8565b806000806101000a81548173ffffffffffffffffffffffffffffffffffffffff021916908373ffffffffffffffffffffffffffffffffffffffff160217905550506200011a565b600080fd5b600073ffffffffffffffffffffffffffffffffffffffff82169050919050565b6000620000b08262000083565b9050919050565b620000c281620000a3565b8114620000ce57600080fd5b50565b600081519050620000e281620000b7565b92915050565b6000602082840312156200010157620001006200007e565b5b60006200011184828501620000d1565b91505092915050565b611449806200012a6000396000f3fe608060405234801561001057600080fd5b506004361061007d5760003560e01c806365e481e21161005b57806365e481e214610105578063c7f758a814610121578063c9d27afe14610156578063fc0c546a146101725761007d565b8063013cf08b14610082578063400e3949146100b757806343859632146100d5575b600080fd5b61009c60048036038101906100979190610a27565b610190565b6040516100ae96959493929190610b0e565b60405180910390f35b6100bf6102e9565b6040516100cc9190610b7d565b60405180910390f35b6100ef60048036038101906100ea9190610bf6565b6102ef565b6040516100fc9190610c36565b60405180910390f35b61011f600480360381019061011a9190610d86565b61031e565b005b61013b60048036038101906101369190610a27565b6104d5565b60405161014d96959493929190610b0e565b60405180910390f35b610170600480360381019061016b9190610e2a565b610691565b005b61017a6109b9565b6040516101879190610ec9565b60405180910390f35b60016020528060005260406000206000915090508060000180546101b390610f13565b80601f01602080910402602001604051908101604052809291908181526020018280546101df90610f13565b801561022c5780601f106102015761010080835404028352916020019161022c565b820191906000526020600020905b81548152906001019060200180831161020f57829003601f168201915b50505050509080600101805461024190610f13565b80601f016020809104026020016040519081016040528092919081815260200182805461026d90610f13565b80156102ba5780601f1061028f576101008083540402835291602001916102ba565b820191906000526020600020905b81548152906001019060200180831161029d57829003601f168201915b5050505050908060020154908060030154908060040154908060050160009054906101000a900460ff16905086565b60035481565b60026020528160005260406000206020528060005260406000206000915091509054906101000a900460ff1681565b60008060009054906101000a900473ffffffffffffffffffffffffffffffffffffffff1673ffffffffffffffffffffffffffffffffffffffff166370a08231336040518263ffffffff1660e01b815260040161037a9190610f53565b602060405180830381865afa158015610397573d6000803e3d6000fd5b505050506040513d601f19601f820116820180604052508101906103bb9190610f83565b116103fb576040517f08c379a00000000000000000000000000000000000000000000000000000000081526004016103f290610ffc565b60405180910390fd5b6040518060c0016040528083815260200182815260200160008152602001600081526020016203f4804261042f919061104b565b81526020016000151581525060016000600360008154809291906104529061107f565b91905055815260200190815260200160002060008201518160000190816104799190611269565b50602082015181600101908161048f9190611269565b5060408201518160020155606082015181600301556080820151816004015560a08201518160050160006101000a81548160ff0219169083151502179055509050505050565b6060806000806000806000600160008981526020019081526020016000206040518060c001604052908160008201805461050e90610f13565b80601f016020809104026020016040519081016040528092919081815260200182805461053a90610f13565b80156105875780601f1061055c57610100808354040283529160200191610587565b820191906000526020600020905b81548152906001019060200180831161056a57829003601f168201915b505050505081526020016001820180546105a090610f13565b80601f01602080910402602001604051908101604052809291908181526020018280546105cc90610f13565b80156106195780601f106105ee57610100808354040283529160200191610619565b820191906000526020600020905b8154815290600101906020018083116105fc57829003601f168201915b505050505081526020016002820154815260200160038201548152602001600482015481526020016005820160009054906101000a900460ff1615151515815250509050806000015181602001518260400151836060015184608001518560a001519650965096509650965096505091939550919395565b60008060009054906101000a900473ffffffffffffffffffffffffffffffffffffffff1673ffffffffffffffffffffffffffffffffffffffff166370a08231336040518263ffffffff1660e01b81526004016106ed9190610f53565b602060405180830381865afa15801561070a573d6000803e3d6000fd5b505050506040513d601f19601f8201168201806040525081019061072e9190610f83565b1161076e576040517f08c379a000000000000000000000000000000000000000000000000000000000815260040161076590610ffc565b60405180910390fd5b6000600160008481526020019081526020016000209050806004015442106107cb576040517f08c379a00000000000000000000000000000000000000000000000000000000081526004016107c290611387565b60405180910390fd5b6002600084815260200190815260200160002060003373ffffffffffffffffffffffffffffffffffffffff1673ffffffffffffffffffffffffffffffffffffffff16815260200190815260200160002060009054906101000a900460ff1615610869576040517f08c379a0000000000000000000000000000000000000000000000000000000008152600401610860906113f3565b60405180910390fd5b60008060009054906101000a900473ffffffffffffffffffffffffffffffffffffffff1673ffffffffffffffffffffffffffffffffffffffff166370a08231336040518263ffffffff1660e01b81526004016108c59190610f53565b602060405180830381865afa1580156108e2573d6000803e3d6000fd5b505050506040513d601f19601f820116820180604052508101906109069190610f83565b9050821561092e5780826002016000828254610922919061104b565b9250508190555061094a565b80826003016000828254610942919061104b565b925050819055505b60016002600086815260200190815260200160002060003373ffffffffffffffffffffffffffffffffffffffff1673ffffffffffffffffffffffffffffffffffffffff16815260200190815260200160002060006101000a81548160ff02191690831515021790555050505050565b60008054906101000a900473ffffffffffffffffffffffffffffffffffffffff1681565b6000604051905090565b600080fd5b600080fd5b6000819050919050565b610a04816109f1565b8114610a0f57600080fd5b50565b600081359050610a21816109fb565b92915050565b600060208284031215610a3d57610a3c6109e7565b5b6000610a4b84828501610a12565b91505092915050565b600081519050919050565b600082825260208201905092915050565b60005b83811015610a8e578082015181840152602081019050610a73565b60008484015250505050565b6000601f19601f8301169050919050565b6000610ab682610a54565b610ac08185610a5f565b9350610ad0818560208601610a70565b610ad981610a9a565b840191505092915050565b610aed816109f1565b82525050565b60008115159050919050565b610b0881610af3565b82525050565b600060c0820190508181036000830152610b288189610aab565b90508181036020830152610b3c8188610aab565b9050610b4b6040830187610ae4565b610b586060830186610ae4565b610b656080830185610ae4565b610b7260a0830184610aff565b979650505050505050565b6000602082019050610b926000830184610ae4565b92915050565b600073ffffffffffffffffffffffffffffffffffffffff82169050919050565b6000610bc382610b98565b9050919050565b610bd381610bb8565b8114610bde57600080fd5b50565b600081359050610bf081610bca565b92915050565b60008060408385031215610c0d57610c0c6109e7565b5b6000610c1b85828601610a12565b9250506020610c2c85828601610be1565b9150509250929050565b6000602082019050610c4b6000830184610aff565b92915050565b600080fd5b600080fd5b7f4e487b7100000000000000000000000000000000000000000000000000000000600052604160045260246000fd5b610c9382610a9a565b810181811067ffffffffffffffff82111715610cb257610cb1610c5b565b5b80604052505050565b6000610cc56109dd565b9050610cd18282610c8a565b919050565b600067ffffffffffffffff821115610cf157610cf0610c5b565b5b610cfa82610a9a565b9050602081019050919050565b82818337600083830152505050565b6000610d29610d2484610cd6565b610cbb565b905082815260208101848484011115610d4557610d44610c56565b5b610d50848285610d07565b509392505050565b600082601f830112610d6d57610d6c610c51565b5b8135610d7d848260208601610d16565b91505092915050565b60008060408385031215610d9d57610d9c6109e7565b5b600083013567ffffffffffffffff811115610dbb57610dba6109ec565b5b610dc785828601610d58565b925050602083013567ffffffffffffffff811115610de857610de76109ec565b5b610df485828601610d58565b9150509250929050565b610e0781610af3565b8114610e1257600080fd5b50565b600081359050610e2481610dfe565b92915050565b60008060408385031215610e4157610e406109e7565b5b6000610e4f85828601610a12565b9250506020610e6085828601610e15565b9150509250929050565b6000819050919050565b6000610e8f610e8a610e8584610b98565b610e6a565b610b98565b9050919050565b6000610ea182610e74565b9050919050565b6000610eb382610e96565b9050919050565b610ec381610ea8565b82525050565b6000602082019050610ede6000830184610eba565b92915050565b7f4e487b7100000000000000000000000000000000000000000000000000000000600052602260045260246000fd5b60006002820490506001821680610f2b57607f821691505b602082108103610f3e57610f3d610ee4565b5b50919050565b610f4d81610bb8565b82525050565b6000602082019050610f686000830184610f44565b92915050565b600081519050610f7d816109fb565b92915050565b600060208284031215610f9957610f986109e7565b5b6000610fa784828501610f6e565b91505092915050565b7f4e6f74206120746f6b656e20686f6c6465720000000000000000000000000000600082015250565b6000610fe6601283610a5f565b9150610ff182610fb0565b602082019050919050565b6000602082019050818103600083015261101581610fd9565b9050919050565b7f4e487b7100000000000000000000000000000000000000000000000000000000600052601160045260246000fd5b6000611056826109f1565b9150611061836109f1565b92508282019050808211156110795761107861101c565b5b92915050565b600061108a826109f1565b91507fffffffffffffffffffffffffffffffffffffffffffffffffffffffffffffffff82036110bc576110bb61101c565b5b600182019050919050565b60008190508160005260206000209050919050565b60006020601f8301049050919050565b600082821b905092915050565b6000600883026111297fffffffffffffffffffffffffffffffffffffffffffffffffffffffffffffffff826110ec565b61113386836110ec565b95508019841693508086168417925050509392505050565b600061116661116161115c846109f1565b610e6a565b6109f1565b9050919050565b6000819050919050565b6111808361114b565b61119461118c8261116d565b8484546110f9565b825550505050565b600090565b6111a961119c565b6111b4818484611177565b505050565b5b818110156111d8576111cd6000826111a1565b6001810190506111ba565b5050565b601f82111561121d576111ee816110c7565b6111f7846110dc565b81016020851015611206578190505b61121a611212856110dc565b8301826111b9565b50505b505050565b600082821c905092915050565b600061124060001984600802611222565b1980831691505092915050565b6000611259838361122f565b9150826002028217905092915050565b61127282610a54565b67ffffffffffffffff81111561128b5761128a610c5b565b5b6112958254610f13565b6112a08282856111dc565b600060209050601f8311600181146112d357600084156112c1578287015190505b6112cb858261124d565b865550611333565b601f1984166112e1866110c7565b60005b82811015611309578489015182556001820191506020850194506020810190506112e4565b868310156113265784890151611322601f89168261122f565b8355505b6001600288020188555050505b505050505050565b7f566f74696e6720656e6465640000000000000000000000000000000000000000600082015250565b6000611371600c83610a5f565b915061137c8261133b565b602082019050919050565b600060208201905081810360008301526113a081611364565b9050919050565b7f416c726561647920766f74656400000000000000000000000000000000000000600082015250565b60006113dd600d83610a5f565b91506113e8826113a7565b602082019050919050565b6000602082019050818103600083015261140c816113d0565b905091905056fea26469706673582212200e5aae881aa33f27554fb0ddb15e099498e0ac46832be173db2fd45fee3b1ffe64736f6c63430008140033",
  "linkReferences": {},
  "deployedLinkReferences": {}
}